{
  "abi": [
    {
      "inputs": [],
      "stateMutability": "nonpayable",
      "type": "constructor"
    },
    {
      "anonymous": false,
      "inputs": [
        {
          "indexed": true,
          "internalType": "address",
          "name": "owner",
          "type": "address"
        },
        {
          "indexed": true,
          "internalType": "address",
          "name": "approved",
          "type": "address"
        },
        {
          "indexed": true,
          "internalType": "uint256",
          "name": "tokenId",
          "type": "uint256"
        }
      ],
      "name": "Approval",
      "type": "event"
    },
    {
      "anonymous": false,
      "inputs": [
        {
          "indexed": true,
          "internalType": "address",
          "name": "owner",
          "type": "address"
        },
        {
          "indexed": true,
          "internalType": "address",
          "name": "operator",
          "type": "address"
        },
        {
          "indexed": false,
          "internalType": "bool",
          "name": "approved",
          "type": "bool"
        }
      ],
      "name": "ApprovalForAll",
      "type": "event"
    },
    {
      "anonymous": false,
      "inputs": [
        {
          "indexed": true,
          "internalType": "address",
          "name": "previousOwner",
          "type": "address"
        },
        {
          "indexed": true,
          "internalType": "address",
          "name": "newOwner",
          "type": "address"
        }
      ],
      "name": "OwnershipTransferred",
      "type": "event"
    },
    {
      "anonymous": false,
      "inputs": [
        {
          "indexed": true,
          "internalType": "address",
          "name": "from",
          "type": "address"
        },
        {
          "indexed": true,
          "internalType": "address",
          "name": "to",
          "type": "address"
        },
        {
          "indexed": true,
          "internalType": "uint256",
          "name": "tokenId",
          "type": "uint256"
        }
      ],
      "name": "Transfer",
      "type": "event"
    },
    {
      "inputs": [
        {
          "internalType": "address",
          "name": "to",
          "type": "address"
        },
        {
          "internalType": "uint256",
          "name": "tokenId",
          "type": "uint256"
        }
      ],
      "name": "approve",
      "outputs": [],
      "stateMutability": "nonpayable",
      "type": "function"
    },
    {
      "inputs": [
        {
          "internalType": "address",
          "name": "owner",
          "type": "address"
        }
      ],
      "name": "balanceOf",
      "outputs": [
        {
          "internalType": "uint256",
          "name": "",
          "type": "uint256"
        }
      ],
      "stateMutability": "view",
      "type": "function"
    },
    {
      "inputs": [
        {
          "internalType": "uint256",
          "name": "tokenId",
          "type": "uint256"
        }
      ],
      "name": "getApproved",
      "outputs": [
        {
          "internalType": "address",
          "name": "",
          "type": "address"
        }
      ],
      "stateMutability": "view",
      "type": "function"
    },
    {
      "inputs": [
        {
          "internalType": "address",
          "name": "owner",
          "type": "address"
        },
        {
          "internalType": "address",
          "name": "operator",
          "type": "address"
        }
      ],
      "name": "isApprovedForAll",
      "outputs": [
        {
          "internalType": "bool",
          "name": "",
          "type": "bool"
        }
      ],
      "stateMutability": "view",
      "type": "function"
    },
    {
      "inputs": [
        {
          "internalType": "address",
          "name": "recipient",
          "type": "address"
        }
      ],
      "name": "mintNFT",
      "outputs": [
        {
          "internalType": "uint256",
          "name": "",
          "type": "uint256"
        }
      ],
      "stateMutability": "nonpayable",
      "type": "function"
    },
    {
      "inputs": [
        {
          "internalType": "address[]",
          "name": "_recipients",
          "type": "address[]"
        },
        {
          "internalType": "uint256",
          "name": "numberOfTurns",
          "type": "uint256"
        }
      ],
      "name": "multiMint",
      "outputs": [],
      "stateMutability": "nonpayable",
      "type": "function"
    },
    {
      "inputs": [],
      "name": "name",
      "outputs": [
        {
          "internalType": "string",
          "name": "",
          "type": "string"
        }
      ],
      "stateMutability": "view",
      "type": "function"
    },
    {
      "inputs": [],
      "name": "owner",
      "outputs": [
        {
          "internalType": "address",
          "name": "",
          "type": "address"
        }
      ],
      "stateMutability": "view",
      "type": "function"
    },
    {
      "inputs": [
        {
          "internalType": "uint256",
          "name": "tokenId",
          "type": "uint256"
        }
      ],
      "name": "ownerOf",
      "outputs": [
        {
          "internalType": "address",
          "name": "",
          "type": "address"
        }
      ],
      "stateMutability": "view",
      "type": "function"
    },
    {
      "inputs": [],
      "name": "renounceOwnership",
      "outputs": [],
      "stateMutability": "nonpayable",
      "type": "function"
    },
    {
      "inputs": [
        {
          "internalType": "address",
          "name": "from",
          "type": "address"
        },
        {
          "internalType": "address",
          "name": "to",
          "type": "address"
        },
        {
          "internalType": "uint256",
          "name": "tokenId",
          "type": "uint256"
        }
      ],
      "name": "safeTransferFrom",
      "outputs": [],
      "stateMutability": "nonpayable",
      "type": "function"
    },
    {
      "inputs": [
        {
          "internalType": "address",
          "name": "from",
          "type": "address"
        },
        {
          "internalType": "address",
          "name": "to",
          "type": "address"
        },
        {
          "internalType": "uint256",
          "name": "tokenId",
          "type": "uint256"
        },
        {
          "internalType": "bytes",
          "name": "data",
          "type": "bytes"
        }
      ],
      "name": "safeTransferFrom",
      "outputs": [],
      "stateMutability": "nonpayable",
      "type": "function"
    },
    {
      "inputs": [
        {
          "internalType": "address",
          "name": "operator",
          "type": "address"
        },
        {
          "internalType": "bool",
          "name": "approved",
          "type": "bool"
        }
      ],
      "name": "setApprovalForAll",
      "outputs": [],
      "stateMutability": "nonpayable",
      "type": "function"
    },
    {
      "inputs": [
        {
          "internalType": "bytes4",
          "name": "interfaceId",
          "type": "bytes4"
        }
      ],
      "name": "supportsInterface",
      "outputs": [
        {
          "internalType": "bool",
          "name": "",
          "type": "bool"
        }
      ],
      "stateMutability": "view",
      "type": "function"
    },
    {
      "inputs": [],
      "name": "symbol",
      "outputs": [
        {
          "internalType": "string",
          "name": "",
          "type": "string"
        }
      ],
      "stateMutability": "view",
      "type": "function"
    },
    {
      "inputs": [
        {
          "internalType": "uint256",
          "name": "tokenId",
          "type": "uint256"
        }
      ],
      "name": "tokenURI",
      "outputs": [
        {
          "internalType": "string",
          "name": "",
          "type": "string"
        }
      ],
      "stateMutability": "view",
      "type": "function"
    },
    {
      "inputs": [
        {
          "internalType": "address",
          "name": "from",
          "type": "address"
        },
        {
          "internalType": "address",
          "name": "to",
          "type": "address"
        },
        {
          "internalType": "uint256",
          "name": "tokenId",
          "type": "uint256"
        }
      ],
      "name": "transferFrom",
      "outputs": [],
      "stateMutability": "nonpayable",
      "type": "function"
    },
    {
      "inputs": [
        {
          "internalType": "address",
          "name": "newOwner",
          "type": "address"
        }
      ],
      "name": "transferOwnership",
      "outputs": [],
      "stateMutability": "nonpayable",
      "type": "function"
    }
  ],
  "bytecode": {
    "object": "0x60806040523480156200001157600080fd5b506040518060400160405280600781526020016611dd5b58985b1b60ca1b8152506040518060400160405280600481526020016323aaa6a160e11b81525081600090816200006091906200018d565b5060016200006f82826200018d565b5050506200008c620000866200009260201b60201c565b62000096565b62000259565b3390565b600780546001600160a01b038381166001600160a01b0319831681179093556040519116919082907f8be0079c531659141344cd1fd0a4f28419497f9722a3daafe3b4186f6b6457e090600090a35050565b634e487b7160e01b600052604160045260246000fd5b600181811c908216806200011357607f821691505b6020821081036200013457634e487b7160e01b600052602260045260246000fd5b50919050565b601f8211156200018857600081815260208120601f850160051c81016020861015620001635750805b601f850160051c820191505b8181101562000184578281556001016200016f565b5050505b505050565b81516001600160401b03811115620001a957620001a9620000e8565b620001c181620001ba8454620000fe565b846200013a565b602080601f831160018114620001f95760008415620001e05750858301515b600019600386901b1c1916600185901b17855562000184565b600085815260208120601f198616915b828110156200022a5788860151825594840194600190910190840162000209565b5085821015620002495787850151600019600388901b60f8161c191681555b5050505050600190811b01905550565b61196780620002696000396000f3fe608060405234801561001057600080fd5b50600436106101165760003560e01c806370a08231116100a2578063a22cb46511610071578063a22cb46514610239578063b88d4fde1461024c578063c87b56dd1461025f578063e985e9c514610272578063f2fde38b1461028557600080fd5b806370a0823114610205578063715018a6146102185780638da5cb5b1461022057806395d89b411461023157600080fd5b806323b872dd116100e957806323b872dd1461019857806342842e0e146101ab5780634c8baca9146101be57806354ba0f27146101d15780636352211e146101f257600080fd5b806301ffc9a71461011b57806306fdde0314610143578063081812fc14610158578063095ea7b314610183575b600080fd5b61012e6101293660046112b2565b610298565b60405190151581526020015b60405180910390f35b61014b6102ea565b60405161013a919061131f565b61016b610166366004611332565b61037c565b6040516001600160a01b03909116815260200161013a565b610196610191366004611367565b6103a3565b005b6101966101a6366004611391565b6104bd565b6101966101b9366004611391565b6104ee565b6101966101cc366004611414565b610509565b6101e46101df3660046114c7565b610568565b60405190815260200161013a565b61016b610200366004611332565b6105b8565b6101e46102133660046114c7565b610618565b61019661069e565b6007546001600160a01b031661016b565b61014b6106b2565b6101966102473660046114e2565b6106c1565b61019661025a36600461151e565b6106d0565b61014b61026d366004611332565b610708565b61012e6102803660046115de565b610818565b6101966102933660046114c7565b610846565b60006001600160e01b031982166380ac58cd60e01b14806102c957506001600160e01b03198216635b5e139f60e01b145b806102e457506301ffc9a760e01b6001600160e01b03198316145b92915050565b6060600080546102f990611611565b80601f016020809104026020016040519081016040528092919081815260200182805461032590611611565b80156103725780601f1061034757610100808354040283529160200191610372565b820191906000526020600020905b81548152906001019060200180831161035557829003601f168201915b5050505050905090565b6000610387826108bf565b506000908152600460205260409020546001600160a01b031690565b60006103ae826105b8565b9050806001600160a01b0316836001600160a01b0316036104205760405162461bcd60e51b815260206004820152602160248201527f4552433732313a20617070726f76616c20746f2063757272656e74206f776e656044820152603960f91b60648201526084015b60405180910390fd5b336001600160a01b038216148061043c575061043c8133610818565b6104ae5760405162461bcd60e51b815260206004820152603d60248201527f4552433732313a20617070726f76652063616c6c6572206973206e6f7420746f60448201527f6b656e206f776e6572206f7220617070726f76656420666f7220616c6c0000006064820152608401610417565b6104b8838361091e565b505050565b6104c7338261098c565b6104e35760405162461bcd60e51b81526004016104179061164b565b6104b88383836109ea565b6104b8838383604051806020016040528060008152506106d0565b60005b82518110156104b85760005b828110156105555761054284838151811061053557610535611698565b6020026020010151610568565b508061054d816116c4565b915050610518565b5080610560816116c4565b91505061050c565b6000610578600880546001019055565b600061058360085490565b905061058f8382610b5b565b6102e481604051806040016040528060078152602001667465737455726960c81b815250610cf4565b6000818152600260205260408120546001600160a01b0316806102e45760405162461bcd60e51b8152602060048201526018602482015277115490cdcc8c4e881a5b9d985b1a59081d1bdad95b88125160421b6044820152606401610417565b60006001600160a01b0382166106825760405162461bcd60e51b815260206004820152602960248201527f4552433732313a2061646472657373207a65726f206973206e6f7420612076616044820152683634b21037bbb732b960b91b6064820152608401610417565b506001600160a01b031660009081526003602052604090205490565b6106a6610d87565b6106b06000610de1565b565b6060600180546102f990611611565b6106cc338383610e33565b5050565b6106da338361098c565b6106f65760405162461bcd60e51b81526004016104179061164b565b61070284848484610f01565b50505050565b6060610713826108bf565b6000828152600660205260408120805461072c90611611565b80601f016020809104026020016040519081016040528092919081815260200182805461075890611611565b80156107a55780601f1061077a576101008083540402835291602001916107a5565b820191906000526020600020905b81548152906001019060200180831161078857829003601f168201915b5050505050905060006107c360408051602081019091526000815290565b905080516000036107d5575092915050565b8151156108075780826040516020016107ef9291906116dd565b60405160208183030381529060405292505050919050565b61081084610f34565b949350505050565b6001600160a01b03918216600090815260056020908152604080832093909416825291909152205460ff1690565b61084e610d87565b6001600160a01b0381166108b35760405162461bcd60e51b815260206004820152602660248201527f4f776e61626c653a206e6577206f776e657220697320746865207a65726f206160448201526564647265737360d01b6064820152608401610417565b6108bc81610de1565b50565b6000818152600260205260409020546001600160a01b03166108bc5760405162461bcd60e51b8152602060048201526018602482015277115490cdcc8c4e881a5b9d985b1a59081d1bdad95b88125160421b6044820152606401610417565b600081815260046020526040902080546001600160a01b0319166001600160a01b0384169081179091558190610953826105b8565b6001600160a01b03167f8c5be1e5ebec7d5bd14f71427d1e84f3dd0314c0f7b2291e5b200ac8c7c3b92560405160405180910390a45050565b600080610998836105b8565b9050806001600160a01b0316846001600160a01b031614806109bf57506109bf8185610818565b806108105750836001600160a01b03166109d88461037c565b6001600160a01b031614949350505050565b826001600160a01b03166109fd826105b8565b6001600160a01b031614610a235760405162461bcd60e51b81526004016104179061170c565b6001600160a01b038216610a855760405162461bcd60e51b8152602060048201526024808201527f4552433732313a207472616e7366657220746f20746865207a65726f206164646044820152637265737360e01b6064820152608401610417565b610a928383836001610fa8565b826001600160a01b0316610aa5826105b8565b6001600160a01b031614610acb5760405162461bcd60e51b81526004016104179061170c565b600081815260046020908152604080832080546001600160a01b03199081169091556001600160a01b0387811680865260038552838620805460001901905590871680865283862080546001019055868652600290945282852080549092168417909155905184937fddf252ad1be2c89b69c2b068fc378daa952ba7f163c4a11628f55a4df523b3ef91a4505050565b6001600160a01b038216610bb15760405162461bcd60e51b815260206004820181905260248201527f4552433732313a206d696e7420746f20746865207a65726f20616464726573736044820152606401610417565b6000818152600260205260409020546001600160a01b031615610c165760405162461bcd60e51b815260206004820152601c60248201527f4552433732313a20746f6b656e20616c7265616479206d696e746564000000006044820152606401610417565b610c24600083836001610fa8565b6000818152600260205260409020546001600160a01b031615610c895760405162461bcd60e51b815260206004820152601c60248201527f4552433732313a20746f6b656e20616c7265616479206d696e746564000000006044820152606401610417565b6001600160a01b038216600081815260036020908152604080832080546001019055848352600290915280822080546001600160a01b0319168417905551839291907fddf252ad1be2c89b69c2b068fc378daa952ba7f163c4a11628f55a4df523b3ef908290a45050565b6000828152600260205260409020546001600160a01b0316610d6f5760405162461bcd60e51b815260206004820152602e60248201527f45524337323155524953746f726167653a2055524920736574206f66206e6f6e60448201526d32bc34b9ba32b73a103a37b5b2b760911b6064820152608401610417565b60008281526006602052604090206104b8828261179f565b6007546001600160a01b031633146106b05760405162461bcd60e51b815260206004820181905260248201527f4f776e61626c653a2063616c6c6572206973206e6f7420746865206f776e65726044820152606401610417565b600780546001600160a01b038381166001600160a01b0319831681179093556040519116919082907f8be0079c531659141344cd1fd0a4f28419497f9722a3daafe3b4186f6b6457e090600090a35050565b816001600160a01b0316836001600160a01b031603610e945760405162461bcd60e51b815260206004820152601960248201527f4552433732313a20617070726f766520746f2063616c6c6572000000000000006044820152606401610417565b6001600160a01b03838116600081815260056020908152604080832094871680845294825291829020805460ff191686151590811790915591519182527f17307eab39ab6107e8899845ad3d59bd9653f200f220920489ca2b5937696c31910160405180910390a3505050565b610f0c8484846109ea565b610f1884848484611030565b6107025760405162461bcd60e51b81526004016104179061185f565b6060610f3f826108bf565b6000610f5660408051602081019091526000815290565b90506000815111610f765760405180602001604052806000815250610fa1565b80610f8084611131565b604051602001610f919291906116dd565b6040516020818303038152906040525b9392505050565b6001811115610702576001600160a01b03841615610fee576001600160a01b03841660009081526003602052604081208054839290610fe89084906118b1565b90915550505b6001600160a01b03831615610702576001600160a01b038316600090815260036020526040812080548392906110259084906118c4565b909155505050505050565b60006001600160a01b0384163b1561112657604051630a85bd0160e11b81526001600160a01b0385169063150b7a02906110749033908990889088906004016118d7565b6020604051808303816000875af19250505080156110af575060408051601f3d908101601f191682019092526110ac91810190611914565b60015b61110c573d8080156110dd576040519150601f19603f3d011682016040523d82523d6000602084013e6110e2565b606091505b5080516000036111045760405162461bcd60e51b81526004016104179061185f565b805181602001fd5b6001600160e01b031916630a85bd0160e11b149050610810565b506001949350505050565b6060600061113e836111c4565b600101905060008167ffffffffffffffff81111561115e5761115e6113cd565b6040519080825280601f01601f191660200182016040528015611188576020820181803683370190505b5090508181016020015b600019016f181899199a1a9b1b9c1cb0b131b232b360811b600a86061a8153600a850494508461119257509392505050565b60008072184f03e93ff9f4daa797ed6e38ed64bf6a1f0160401b83106112035772184f03e93ff9f4daa797ed6e38ed64bf6a1f0160401b830492506040015b6d04ee2d6d415b85acef8100000000831061122f576d04ee2d6d415b85acef8100000000830492506020015b662386f26fc10000831061124d57662386f26fc10000830492506010015b6305f5e1008310611265576305f5e100830492506008015b612710831061127957612710830492506004015b6064831061128b576064830492506002015b600a83106102e45760010192915050565b6001600160e01b0319811681146108bc57600080fd5b6000602082840312156112c457600080fd5b8135610fa18161129c565b60005b838110156112ea5781810151838201526020016112d2565b50506000910152565b6000815180845261130b8160208601602086016112cf565b601f01601f19169290920160200192915050565b602081526000610fa160208301846112f3565b60006020828403121561134457600080fd5b5035919050565b80356001600160a01b038116811461136257600080fd5b919050565b6000806040838503121561137a57600080fd5b6113838361134b565b946020939093013593505050565b6000806000606084860312156113a657600080fd5b6113af8461134b565b92506113bd6020850161134b565b9150604084013590509250925092565b634e487b7160e01b600052604160045260246000fd5b604051601f8201601f1916810167ffffffffffffffff8111828210171561140c5761140c6113cd565b604052919050565b6000806040838503121561142757600080fd5b823567ffffffffffffffff8082111561143f57600080fd5b818501915085601f83011261145357600080fd5b8135602082821115611467576114676113cd565b8160051b92506114788184016113e3565b828152928401810192818101908985111561149257600080fd5b948201945b848610156114b7576114a88661134b565b82529482019490820190611497565b9997909101359750505050505050565b6000602082840312156114d957600080fd5b610fa18261134b565b600080604083850312156114f557600080fd5b6114fe8361134b565b91506020830135801515811461151357600080fd5b809150509250929050565b6000806000806080858703121561153457600080fd5b61153d8561134b565b9350602061154c81870161134b565b935060408601359250606086013567ffffffffffffffff8082111561157057600080fd5b818801915088601f83011261158457600080fd5b813581811115611596576115966113cd565b6115a8601f8201601f191685016113e3565b915080825289848285010111156115be57600080fd5b808484018584013760008482840101525080935050505092959194509250565b600080604083850312156115f157600080fd5b6115fa8361134b565b91506116086020840161134b565b90509250929050565b600181811c9082168061162557607f821691505b60208210810361164557634e487b7160e01b600052602260045260246000fd5b50919050565b6020808252602d908201527f4552433732313a2063616c6c6572206973206e6f7420746f6b656e206f776e6560408201526c1c881bdc88185c1c1c9bdd9959609a1b606082015260800190565b634e487b7160e01b600052603260045260246000fd5b634e487b7160e01b600052601160045260246000fd5b6000600182016116d6576116d66116ae565b5060010190565b600083516116ef8184602088016112cf565b8351908301906117038183602088016112cf565b01949350505050565b60208082526025908201527f4552433732313a207472616e736665722066726f6d20696e636f72726563742060408201526437bbb732b960d91b606082015260800190565b601f8211156104b857600081815260208120601f850160051c810160208610156117785750805b601f850160051c820191505b8181101561179757828155600101611784565b505050505050565b815167ffffffffffffffff8111156117b9576117b96113cd565b6117cd816117c78454611611565b84611751565b602080601f83116001811461180257600084156117ea5750858301515b600019600386901b1c1916600185901b178555611797565b600085815260208120601f198616915b8281101561183157888601518255948401946001909101908401611812565b508582101561184f5787850151600019600388901b60f8161c191681555b5050505050600190811b01905550565b60208082526032908201527f4552433732313a207472616e7366657220746f206e6f6e20455243373231526560408201527131b2b4bb32b91034b6b83632b6b2b73a32b960711b606082015260800190565b818103818111156102e4576102e46116ae565b808201808211156102e4576102e46116ae565b6001600160a01b038581168252841660208201526040810183905260806060820181905260009061190a908301846112f3565b9695505050505050565b60006020828403121561192657600080fd5b8151610fa18161129c56fea2646970667358221220510ccbb0bc552f98b6e62cfab932d366c95698f009777d3727204de19e4abb8164736f6c63430008110033",
    "linkReferences": {}
  },
  "methodIdentifiers": {
    "approve(address,uint256)": "095ea7b3",
    "balanceOf(address)": "70a08231",
    "getApproved(uint256)": "081812fc",
    "isApprovedForAll(address,address)": "e985e9c5",
    "mintNFT(address)": "54ba0f27",
    "multiMint(address[],uint256)": "4c8baca9",
    "name()": "06fdde03",
    "owner()": "8da5cb5b",
    "ownerOf(uint256)": "6352211e",
    "renounceOwnership()": "715018a6",
    "safeTransferFrom(address,address,uint256)": "42842e0e",
    "safeTransferFrom(address,address,uint256,bytes)": "b88d4fde",
    "setApprovalForAll(address,bool)": "a22cb465",
    "supportsInterface(bytes4)": "01ffc9a7",
    "symbol()": "95d89b41",
    "tokenURI(uint256)": "c87b56dd",
    "transferFrom(address,address,uint256)": "23b872dd",
    "transferOwnership(address)": "f2fde38b"
  },
  "id": 28
}