{
  "abi": [
    {
      "inputs": [
        {
          "internalType": "address",
          "name": "_contentNft",
          "type": "address"
        },
        {
          "internalType": "uint256",
          "name": "_contentId",
          "type": "uint256"
        },
        {
          "internalType": "address",
          "name": "_styleNft",
          "type": "address"
        },
        {
          "internalType": "uint256",
          "name": "_styleId",
          "type": "uint256"
        }
      ],
      "name": "Snack",
      "outputs": [],
      "stateMutability": "nonpayable",
      "type": "function"
    },
    {
      "inputs": [],
      "name": "burn",
      "outputs": [
        {
          "internalType": "address",
          "name": "",
          "type": "address"
        }
      ],
      "stateMutability": "view",
      "type": "function"
    }
  ],
  "bytecode": {
    "object": "0x6080604052600080546001600160a01b03191661dead17905534801561002457600080fd5b506101f3806100346000396000f3fe608060405234801561001057600080fd5b50600436106100365760003560e01c80633e91530e1461003b57806344df8e7014610050575b600080fd5b61004e610049366004610179565b61007f565b005b600054610063906001600160a01b031681565b6040516001600160a01b03909116815260200160405180910390f35b6000546040516323b872dd60e01b81523360048201526001600160a01b03918216602482015260448101859052908516906323b872dd90606401600060405180830381600087803b1580156100d357600080fd5b505af11580156100e7573d6000803e3d6000fd5b50506000546040516323b872dd60e01b81523360048201526001600160a01b0391821660248201526044810185905290851692506323b872dd9150606401600060405180830381600087803b15801561013f57600080fd5b505af1158015610153573d6000803e3d6000fd5b5050505050505050565b80356001600160a01b038116811461017457600080fd5b919050565b6000806000806080858703121561018f57600080fd5b6101988561015d565b9350602085013592506101ad6040860161015d565b939692955092936060013592505056fea2646970667358221220df9061db1a3bc4c875e5f57076a55ce2e0963d9b06ea9f4d62db984883acc66064736f6c63430008110033",
    "linkReferences": {}
  },
  "methodIdentifiers": {
    "Snack(address,uint256,address,uint256)": "3e91530e",
    "burn()": "44df8e70"
  },
  "id": 27
}