{
  "abi": [
    {
      "inputs": [],
      "stateMutability": "nonpayable",
      "type": "constructor"
    },
    {
      "anonymous": false,
      "inputs": [
        {
          "indexed": true,
          "internalType": "address",
          "name": "owner",
          "type": "address"
        },
        {
          "indexed": true,
          "internalType": "address",
          "name": "approved",
          "type": "address"
        },
        {
          "indexed": true,
          "internalType": "uint256",
          "name": "tokenId",
          "type": "uint256"
        }
      ],
      "name": "Approval",
      "type": "event"
    },
    {
      "anonymous": false,
      "inputs": [
        {
          "indexed": true,
          "internalType": "address",
          "name": "owner",
          "type": "address"
        },
        {
          "indexed": true,
          "internalType": "address",
          "name": "operator",
          "type": "address"
        },
        {
          "indexed": false,
          "internalType": "bool",
          "name": "approved",
          "type": "bool"
        }
      ],
      "name": "ApprovalForAll",
      "type": "event"
    },
    {
      "anonymous": false,
      "inputs": [
        {
          "indexed": true,
          "internalType": "address",
          "name": "previousOwner",
          "type": "address"
        },
        {
          "indexed": true,
          "internalType": "address",
          "name": "newOwner",
          "type": "address"
        }
      ],
      "name": "OwnershipTransferred",
      "type": "event"
    },
    {
      "anonymous": false,
      "inputs": [
        {
          "indexed": true,
          "internalType": "address",
          "name": "from",
          "type": "address"
        },
        {
          "indexed": true,
          "internalType": "address",
          "name": "to",
          "type": "address"
        },
        {
          "indexed": true,
          "internalType": "uint256",
          "name": "tokenId",
          "type": "uint256"
        }
      ],
      "name": "Transfer",
      "type": "event"
    },
    {
      "inputs": [
        {
          "internalType": "address",
          "name": "_contentNft",
          "type": "address"
        },
        {
          "internalType": "uint256",
          "name": "_contentId",
          "type": "uint256"
        },
        {
          "internalType": "address",
          "name": "_styleNft",
          "type": "address"
        },
        {
          "internalType": "uint256",
          "name": "_styleId",
          "type": "uint256"
        },
        {
          "internalType": "address",
          "name": "to",
          "type": "address"
        }
      ],
      "name": "Snack",
      "outputs": [],
      "stateMutability": "nonpayable",
      "type": "function"
    },
    {
      "inputs": [
        {
          "internalType": "address",
          "name": "to",
          "type": "address"
        },
        {
          "internalType": "uint256",
          "name": "tokenId",
          "type": "uint256"
        }
      ],
      "name": "approve",
      "outputs": [],
      "stateMutability": "nonpayable",
      "type": "function"
    },
    {
      "inputs": [
        {
          "internalType": "address",
          "name": "owner",
          "type": "address"
        }
      ],
      "name": "balanceOf",
      "outputs": [
        {
          "internalType": "uint256",
          "name": "",
          "type": "uint256"
        }
      ],
      "stateMutability": "view",
      "type": "function"
    },
    {
      "inputs": [],
      "name": "burn",
      "outputs": [
        {
          "internalType": "address",
          "name": "",
          "type": "address"
        }
      ],
      "stateMutability": "view",
      "type": "function"
    },
    {
      "inputs": [
        {
          "internalType": "uint256",
          "name": "tokenId",
          "type": "uint256"
        }
      ],
      "name": "getApproved",
      "outputs": [
        {
          "internalType": "address",
          "name": "",
          "type": "address"
        }
      ],
      "stateMutability": "view",
      "type": "function"
    },
    {
      "inputs": [
        {
          "internalType": "address",
          "name": "owner",
          "type": "address"
        },
        {
          "internalType": "address",
          "name": "operator",
          "type": "address"
        }
      ],
      "name": "isApprovedForAll",
      "outputs": [
        {
          "internalType": "bool",
          "name": "",
          "type": "bool"
        }
      ],
      "stateMutability": "view",
      "type": "function"
    },
    {
      "inputs": [],
      "name": "name",
      "outputs": [
        {
          "internalType": "string",
          "name": "",
          "type": "string"
        }
      ],
      "stateMutability": "view",
      "type": "function"
    },
    {
      "inputs": [],
      "name": "owner",
      "outputs": [
        {
          "internalType": "address",
          "name": "",
          "type": "address"
        }
      ],
      "stateMutability": "view",
      "type": "function"
    },
    {
      "inputs": [
        {
          "internalType": "uint256",
          "name": "tokenId",
          "type": "uint256"
        }
      ],
      "name": "ownerOf",
      "outputs": [
        {
          "internalType": "address",
          "name": "",
          "type": "address"
        }
      ],
      "stateMutability": "view",
      "type": "function"
    },
    {
      "inputs": [],
      "name": "renounceOwnership",
      "outputs": [],
      "stateMutability": "nonpayable",
      "type": "function"
    },
    {
      "inputs": [
        {
          "internalType": "address",
          "name": "to",
          "type": "address"
        },
        {
          "internalType": "uint256",
          "name": "tokenId",
          "type": "uint256"
        },
        {
          "internalType": "string",
          "name": "uri",
          "type": "string"
        }
      ],
      "name": "safeMint",
      "outputs": [],
      "stateMutability": "nonpayable",
      "type": "function"
    },
    {
      "inputs": [
        {
          "internalType": "address",
          "name": "from",
          "type": "address"
        },
        {
          "internalType": "address",
          "name": "to",
          "type": "address"
        },
        {
          "internalType": "uint256",
          "name": "tokenId",
          "type": "uint256"
        }
      ],
      "name": "safeTransferFrom",
      "outputs": [],
      "stateMutability": "nonpayable",
      "type": "function"
    },
    {
      "inputs": [
        {
          "internalType": "address",
          "name": "from",
          "type": "address"
        },
        {
          "internalType": "address",
          "name": "to",
          "type": "address"
        },
        {
          "internalType": "uint256",
          "name": "tokenId",
          "type": "uint256"
        },
        {
          "internalType": "bytes",
          "name": "data",
          "type": "bytes"
        }
      ],
      "name": "safeTransferFrom",
      "outputs": [],
      "stateMutability": "nonpayable",
      "type": "function"
    },
    {
      "inputs": [
        {
          "internalType": "address",
          "name": "operator",
          "type": "address"
        },
        {
          "internalType": "bool",
          "name": "approved",
          "type": "bool"
        }
      ],
      "name": "setApprovalForAll",
      "outputs": [],
      "stateMutability": "nonpayable",
      "type": "function"
    },
    {
      "inputs": [
        {
          "internalType": "bytes4",
          "name": "interfaceId",
          "type": "bytes4"
        }
      ],
      "name": "supportsInterface",
      "outputs": [
        {
          "internalType": "bool",
          "name": "",
          "type": "bool"
        }
      ],
      "stateMutability": "view",
      "type": "function"
    },
    {
      "inputs": [],
      "name": "symbol",
      "outputs": [
        {
          "internalType": "string",
          "name": "",
          "type": "string"
        }
      ],
      "stateMutability": "view",
      "type": "function"
    },
    {
      "inputs": [
        {
          "internalType": "uint256",
          "name": "tokenId",
          "type": "uint256"
        }
      ],
      "name": "tokenURI",
      "outputs": [
        {
          "internalType": "string",
          "name": "",
          "type": "string"
        }
      ],
      "stateMutability": "view",
      "type": "function"
    },
    {
      "inputs": [
        {
          "internalType": "address",
          "name": "from",
          "type": "address"
        },
        {
          "internalType": "address",
          "name": "to",
          "type": "address"
        },
        {
          "internalType": "uint256",
          "name": "tokenId",
          "type": "uint256"
        }
      ],
      "name": "transferFrom",
      "outputs": [],
      "stateMutability": "nonpayable",
      "type": "function"
    },
    {
      "inputs": [
        {
          "internalType": "address",
          "name": "newOwner",
          "type": "address"
        }
      ],
      "name": "transferOwnership",
      "outputs": [],
      "stateMutability": "nonpayable",
      "type": "function"
    }
  ],
  "bytecode": {
    "object": "0x60a0604052600060809081526008906200001a9082620001c6565b50600980546001600160a01b0319908116600217909155600b805490911661dead1790553480156200004b57600080fd5b506040518060400160405280600781526020016629b730b1b5b2b960c91b81525060405180604001604052806003815260200162534e4b60e81b8152508160009081620000999190620001c6565b506001620000a88282620001c6565b505050620000c5620000bf620000cb60201b60201c565b620000cf565b62000292565b3390565b600780546001600160a01b038381166001600160a01b0319831681179093556040519116919082907f8be0079c531659141344cd1fd0a4f28419497f9722a3daafe3b4186f6b6457e090600090a35050565b634e487b7160e01b600052604160045260246000fd5b600181811c908216806200014c57607f821691505b6020821081036200016d57634e487b7160e01b600052602260045260246000fd5b50919050565b601f821115620001c157600081815260208120601f850160051c810160208610156200019c5750805b601f850160051c820191505b81811015620001bd57828155600101620001a8565b5050505b505050565b81516001600160401b03811115620001e257620001e262000121565b620001fa81620001f3845462000137565b8462000173565b602080601f831160018114620002325760008415620002195750858301515b600019600386901b1c1916600185901b178555620001bd565b600085815260208120601f198616915b82811015620002635788860151825594840194600190910190840162000242565b5085821015620002825787850151600019600388901b60f8161c191681555b5050505050600190811b01905550565b611ab580620002a26000396000f3fe608060405234801561001057600080fd5b50600436106101215760003560e01c8063715018a6116100ad578063c87b56dd11610071578063c87b56dd14610257578063cd279c7c1461026a578063e985e9c51461027d578063f2fde38b14610290578063f3bc31d4146102a357600080fd5b8063715018a6146102105780638da5cb5b1461021857806395d89b4114610229578063a22cb46514610231578063b88d4fde1461024457600080fd5b806323b872dd116100f457806323b872dd146101a357806342842e0e146101b657806344df8e70146101c95780636352211e146101dc57806370a08231146101ef57600080fd5b806301ffc9a71461012657806306fdde031461014e578063081812fc14610163578063095ea7b31461018e575b600080fd5b610139610134366004611427565b6102b6565b60405190151581526020015b60405180910390f35b610156610308565b6040516101459190611494565b6101766101713660046114a7565b61039a565b6040516001600160a01b039091168152602001610145565b6101a161019c3660046114dc565b6103c1565b005b6101a16101b1366004611506565b6104db565b6101a16101c4366004611506565b61050c565b600b54610176906001600160a01b031681565b6101766101ea3660046114a7565b610527565b6102026101fd366004611542565b610587565b604051908152602001610145565b6101a161060d565b6007546001600160a01b0316610176565b610156610621565b6101a161023f36600461155d565b610630565b6101a1610252366004611625565b61063f565b6101566102653660046114a7565b610677565b6101a16102783660046116a1565b610682565b61013961028b36600461170c565b61069e565b6101a161029e366004611542565b6106cc565b6101a16102b136600461173f565b610745565b60006001600160e01b031982166380ac58cd60e01b14806102e757506001600160e01b03198216635b5e139f60e01b145b8061030257506301ffc9a760e01b6001600160e01b03198316145b92915050565b60606000805461031790611796565b80601f016020809104026020016040519081016040528092919081815260200182805461034390611796565b80156103905780601f1061036557610100808354040283529160200191610390565b820191906000526020600020905b81548152906001019060200180831161037357829003601f168201915b5050505050905090565b60006103a5826108de565b506000908152600460205260409020546001600160a01b031690565b60006103cc82610527565b9050806001600160a01b0316836001600160a01b03160361043e5760405162461bcd60e51b815260206004820152602160248201527f4552433732313a20617070726f76616c20746f2063757272656e74206f776e656044820152603960f91b60648201526084015b60405180910390fd5b336001600160a01b038216148061045a575061045a813361069e565b6104cc5760405162461bcd60e51b815260206004820152603d60248201527f4552433732313a20617070726f76652063616c6c6572206973206e6f7420746f60448201527f6b656e206f776e6572206f7220617070726f76656420666f7220616c6c0000006064820152608401610435565b6104d6838361093d565b505050565b6104e533826109ab565b6105015760405162461bcd60e51b8152600401610435906117d0565b6104d6838383610a0a565b6104d68383836040518060200160405280600081525061063f565b6000818152600260205260408120546001600160a01b0316806103025760405162461bcd60e51b8152602060048201526018602482015277115490cdcc8c4e881a5b9d985b1a59081d1bdad95b88125160421b6044820152606401610435565b60006001600160a01b0382166105f15760405162461bcd60e51b815260206004820152602960248201527f4552433732313a2061646472657373207a65726f206973206e6f7420612076616044820152683634b21037bbb732b960b91b6064820152608401610435565b506001600160a01b031660009081526003602052604090205490565b610615610b7b565b61061f6000610bd5565b565b60606001805461031790611796565b61063b338383610c27565b5050565b61064933836109ab565b6106655760405162461bcd60e51b8152600401610435906117d0565b61067184848484610cf5565b50505050565b606061030282610d28565b61068a610b7b565b6106948383610e30565b6104d68282610e4a565b6001600160a01b03918216600090815260056020908152604080832093909416825291909152205460ff1690565b6106d4610b7b565b6001600160a01b0381166107395760405162461bcd60e51b815260206004820152602660248201527f4f776e61626c653a206e6577206f776e657220697320746865207a65726f206160448201526564647265737360d01b6064820152608401610435565b61074281610bd5565b50565b600b546040516323b872dd60e01b81523360048201526001600160a01b03918216602482015260448101869052908616906323b872dd90606401600060405180830381600087803b15801561079957600080fd5b505af11580156107ad573d6000803e3d6000fd5b5050600b546040516323b872dd60e01b81523360048201526001600160a01b0391821660248201526044810186905290861692506323b872dd9150606401600060405180830381600087803b15801561080557600080fd5b505af1158015610819573d6000803e3d6000fd5b505050506000610828600a5490565b9050610838600a80546001019055565b6108428282610e30565b6108d6816008805461085390611796565b80601f016020809104026020016040519081016040528092919081815260200182805461087f90611796565b80156108cc5780601f106108a1576101008083540402835291602001916108cc565b820191906000526020600020905b8154815290600101906020018083116108af57829003601f168201915b5050505050610e4a565b505050505050565b6000818152600260205260409020546001600160a01b03166107425760405162461bcd60e51b8152602060048201526018602482015277115490cdcc8c4e881a5b9d985b1a59081d1bdad95b88125160421b6044820152606401610435565b600081815260046020526040902080546001600160a01b0319166001600160a01b038416908117909155819061097282610527565b6001600160a01b03167f8c5be1e5ebec7d5bd14f71427d1e84f3dd0314c0f7b2291e5b200ac8c7c3b92560405160405180910390a45050565b6000806109b783610527565b9050806001600160a01b0316846001600160a01b031614806109de57506109de818561069e565b80610a025750836001600160a01b03166109f78461039a565b6001600160a01b0316145b949350505050565b826001600160a01b0316610a1d82610527565b6001600160a01b031614610a435760405162461bcd60e51b81526004016104359061181d565b6001600160a01b038216610aa55760405162461bcd60e51b8152602060048201526024808201527f4552433732313a207472616e7366657220746f20746865207a65726f206164646044820152637265737360e01b6064820152608401610435565b610ab28383836001610edd565b826001600160a01b0316610ac582610527565b6001600160a01b031614610aeb5760405162461bcd60e51b81526004016104359061181d565b600081815260046020908152604080832080546001600160a01b03199081169091556001600160a01b0387811680865260038552838620805460001901905590871680865283862080546001019055868652600290945282852080549092168417909155905184937fddf252ad1be2c89b69c2b068fc378daa952ba7f163c4a11628f55a4df523b3ef91a4505050565b6007546001600160a01b0316331461061f5760405162461bcd60e51b815260206004820181905260248201527f4f776e61626c653a2063616c6c6572206973206e6f7420746865206f776e65726044820152606401610435565b600780546001600160a01b038381166001600160a01b0319831681179093556040519116919082907f8be0079c531659141344cd1fd0a4f28419497f9722a3daafe3b4186f6b6457e090600090a35050565b816001600160a01b0316836001600160a01b031603610c885760405162461bcd60e51b815260206004820152601960248201527f4552433732313a20617070726f766520746f2063616c6c6572000000000000006044820152606401610435565b6001600160a01b03838116600081815260056020908152604080832094871680845294825291829020805460ff191686151590811790915591519182527f17307eab39ab6107e8899845ad3d59bd9653f200f220920489ca2b5937696c31910160405180910390a3505050565b610d00848484610a0a565b610d0c84848484610f65565b6106715760405162461bcd60e51b815260040161043590611862565b6060610d33826108de565b60008281526006602052604081208054610d4c90611796565b80601f0160208091040260200160405190810160405280929190818152602001828054610d7890611796565b8015610dc55780601f10610d9a57610100808354040283529160200191610dc5565b820191906000526020600020905b815481529060010190602001808311610da857829003601f168201915b505050505090506000610de360408051602081019091526000815290565b90508051600003610df5575092915050565b815115610e27578082604051602001610e0f9291906118b4565b60405160208183030381529060405292505050919050565b610a0284611066565b61063b8282604051806020016040528060008152506110da565b6000828152600260205260409020546001600160a01b0316610ec55760405162461bcd60e51b815260206004820152602e60248201527f45524337323155524953746f726167653a2055524920736574206f66206e6f6e60448201526d32bc34b9ba32b73a103a37b5b2b760911b6064820152608401610435565b60008281526006602052604090206104d68282611929565b6001811115610671576001600160a01b03841615610f23576001600160a01b03841660009081526003602052604081208054839290610f1d9084906119ff565b90915550505b6001600160a01b03831615610671576001600160a01b03831660009081526003602052604081208054839290610f5a908490611a12565b909155505050505050565b60006001600160a01b0384163b1561105b57604051630a85bd0160e11b81526001600160a01b0385169063150b7a0290610fa9903390899088908890600401611a25565b6020604051808303816000875af1925050508015610fe4575060408051601f3d908101601f19168201909252610fe191810190611a62565b60015b611041573d808015611012576040519150601f19603f3d011682016040523d82523d6000602084013e611017565b606091505b5080516000036110395760405162461bcd60e51b815260040161043590611862565b805181602001fd5b6001600160e01b031916630a85bd0160e11b149050610a02565b506001949350505050565b6060611071826108de565b600061108860408051602081019091526000815290565b905060008151116110a857604051806020016040528060008152506110d3565b806110b28461110d565b6040516020016110c39291906118b4565b6040516020818303038152906040525b9392505050565b6110e483836111a0565b6110f16000848484610f65565b6104d65760405162461bcd60e51b815260040161043590611862565b6060600061111a83611339565b600101905060008167ffffffffffffffff81111561113a5761113a611599565b6040519080825280601f01601f191660200182016040528015611164576020820181803683370190505b5090508181016020015b600019016f181899199a1a9b1b9c1cb0b131b232b360811b600a86061a8153600a850494508461116e57509392505050565b6001600160a01b0382166111f65760405162461bcd60e51b815260206004820181905260248201527f4552433732313a206d696e7420746f20746865207a65726f20616464726573736044820152606401610435565b6000818152600260205260409020546001600160a01b03161561125b5760405162461bcd60e51b815260206004820152601c60248201527f4552433732313a20746f6b656e20616c7265616479206d696e746564000000006044820152606401610435565b611269600083836001610edd565b6000818152600260205260409020546001600160a01b0316156112ce5760405162461bcd60e51b815260206004820152601c60248201527f4552433732313a20746f6b656e20616c7265616479206d696e746564000000006044820152606401610435565b6001600160a01b038216600081815260036020908152604080832080546001019055848352600290915280822080546001600160a01b0319168417905551839291907fddf252ad1be2c89b69c2b068fc378daa952ba7f163c4a11628f55a4df523b3ef908290a45050565b60008072184f03e93ff9f4daa797ed6e38ed64bf6a1f0160401b83106113785772184f03e93ff9f4daa797ed6e38ed64bf6a1f0160401b830492506040015b6d04ee2d6d415b85acef810000000083106113a4576d04ee2d6d415b85acef8100000000830492506020015b662386f26fc1000083106113c257662386f26fc10000830492506010015b6305f5e10083106113da576305f5e100830492506008015b61271083106113ee57612710830492506004015b60648310611400576064830492506002015b600a83106103025760010192915050565b6001600160e01b03198116811461074257600080fd5b60006020828403121561143957600080fd5b81356110d381611411565b60005b8381101561145f578181015183820152602001611447565b50506000910152565b60008151808452611480816020860160208601611444565b601f01601f19169290920160200192915050565b6020815260006110d36020830184611468565b6000602082840312156114b957600080fd5b5035919050565b80356001600160a01b03811681146114d757600080fd5b919050565b600080604083850312156114ef57600080fd5b6114f8836114c0565b946020939093013593505050565b60008060006060848603121561151b57600080fd5b611524846114c0565b9250611532602085016114c0565b9150604084013590509250925092565b60006020828403121561155457600080fd5b6110d3826114c0565b6000806040838503121561157057600080fd5b611579836114c0565b91506020830135801515811461158e57600080fd5b809150509250929050565b634e487b7160e01b600052604160045260246000fd5b600067ffffffffffffffff808411156115ca576115ca611599565b604051601f8501601f19908116603f011681019082821181831017156115f2576115f2611599565b8160405280935085815286868601111561160b57600080fd5b858560208301376000602087830101525050509392505050565b6000806000806080858703121561163b57600080fd5b611644856114c0565b9350611652602086016114c0565b925060408501359150606085013567ffffffffffffffff81111561167557600080fd5b8501601f8101871361168657600080fd5b611695878235602084016115af565b91505092959194509250565b6000806000606084860312156116b657600080fd5b6116bf846114c0565b925060208401359150604084013567ffffffffffffffff8111156116e257600080fd5b8401601f810186136116f357600080fd5b611702868235602084016115af565b9150509250925092565b6000806040838503121561171f57600080fd5b611728836114c0565b9150611736602084016114c0565b90509250929050565b600080600080600060a0868803121561175757600080fd5b611760866114c0565b945060208601359350611775604087016114c0565b92506060860135915061178a608087016114c0565b90509295509295909350565b600181811c908216806117aa57607f821691505b6020821081036117ca57634e487b7160e01b600052602260045260246000fd5b50919050565b6020808252602d908201527f4552433732313a2063616c6c6572206973206e6f7420746f6b656e206f776e6560408201526c1c881bdc88185c1c1c9bdd9959609a1b606082015260800190565b60208082526025908201527f4552433732313a207472616e736665722066726f6d20696e636f72726563742060408201526437bbb732b960d91b606082015260800190565b60208082526032908201527f4552433732313a207472616e7366657220746f206e6f6e20455243373231526560408201527131b2b4bb32b91034b6b83632b6b2b73a32b960711b606082015260800190565b600083516118c6818460208801611444565b8351908301906118da818360208801611444565b01949350505050565b601f8211156104d657600081815260208120601f850160051c8101602086101561190a5750805b601f850160051c820191505b818110156108d657828155600101611916565b815167ffffffffffffffff81111561194357611943611599565b611957816119518454611796565b846118e3565b602080601f83116001811461198c57600084156119745750858301515b600019600386901b1c1916600185901b1785556108d6565b600085815260208120601f198616915b828110156119bb5788860151825594840194600190910190840161199c565b50858210156119d95787850151600019600388901b60f8161c191681555b5050505050600190811b01905550565b634e487b7160e01b600052601160045260246000fd5b81810381811115610302576103026119e9565b80820180821115610302576103026119e9565b6001600160a01b0385811682528416602082015260408101839052608060608201819052600090611a5890830184611468565b9695505050505050565b600060208284031215611a7457600080fd5b81516110d38161141156fea26469706673582212209ab21eb19092c511ff2315017df2b7f1ed9b12ec5f353059a4f203edaa6f5db164736f6c63430008110033",
    "linkReferences": {}
  },
  "methodIdentifiers": {
    "Snack(address,uint256,address,uint256,address)": "f3bc31d4",
    "approve(address,uint256)": "095ea7b3",
    "balanceOf(address)": "70a08231",
    "burn()": "44df8e70",
    "getApproved(uint256)": "081812fc",
    "isApprovedForAll(address,address)": "e985e9c5",
    "name()": "06fdde03",
    "owner()": "8da5cb5b",
    "ownerOf(uint256)": "6352211e",
    "renounceOwnership()": "715018a6",
    "safeMint(address,uint256,string)": "cd279c7c",
    "safeTransferFrom(address,address,uint256)": "42842e0e",
    "safeTransferFrom(address,address,uint256,bytes)": "b88d4fde",
    "setApprovalForAll(address,bool)": "a22cb465",
    "supportsInterface(bytes4)": "01ffc9a7",
    "symbol()": "95d89b41",
    "tokenURI(uint256)": "c87b56dd",
    "transferFrom(address,address,uint256)": "23b872dd",
    "transferOwnership(address)": "f2fde38b"
  },
  "id": 27
}